{
  "_format": "hh-sol-artifact-1",
  "contractName": "DocumentStore",
  "sourceName": "contracts/DocumentStore.sol",
  "abi": [
    {
      "inputs": [],
      "stateMutability": "nonpayable",
      "type": "constructor"
    },
    {
      "anonymous": false,
      "inputs": [
        {
          "indexed": true,
          "internalType": "address",
          "name": "issuer",
          "type": "address"
        },
        {
          "indexed": true,
          "internalType": "bytes32",
          "name": "docHash",
          "type": "bytes32"
        },
        {
          "indexed": false,
          "internalType": "string",
          "name": "ipfsHash",
          "type": "string"
        },
        {
          "indexed": false,
          "internalType": "uint256",
          "name": "timestamp",
          "type": "uint256"
        }
      ],
      "name": "DocumentUploaded",
      "type": "event"
    },
    {
      "inputs": [
        {
          "internalType": "address",
          "name": "_issuer",
          "type": "address"
        }
      ],
      "name": "addIssuer",
      "outputs": [],
      "stateMutability": "nonpayable",
      "type": "function"
    },
    {
      "inputs": [
        {
          "internalType": "bytes32",
          "name": "",
          "type": "bytes32"
        }
      ],
      "name": "documents",
      "outputs": [
        {
          "internalType": "address",
          "name": "issuer",
          "type": "address"
        },
        {
          "internalType": "string",
          "name": "ipfsHash",
          "type": "string"
        },
        {
          "internalType": "uint256",
          "name": "timestamp",
          "type": "uint256"
        }
      ],
      "stateMutability": "view",
      "type": "function"
    },
    {
      "inputs": [
        {
          "internalType": "bytes32",
          "name": "_docHash",
          "type": "bytes32"
        }
      ],
      "name": "isDocumentPresent",
      "outputs": [
        {
          "internalType": "bool",
          "name": "",
          "type": "bool"
        }
      ],
      "stateMutability": "view",
      "type": "function"
    },
    {
      "inputs": [
        {
          "internalType": "address",
          "name": "",
          "type": "address"
        }
      ],
      "name": "isIssuer",
      "outputs": [
        {
          "internalType": "bool",
          "name": "",
          "type": "bool"
        }
      ],
      "stateMutability": "view",
      "type": "function"
    },
    {
      "inputs": [],
      "name": "owner",
      "outputs": [
        {
          "internalType": "address",
          "name": "",
          "type": "address"
        }
      ],
      "stateMutability": "view",
      "type": "function"
    },
    {
      "inputs": [
        {
          "internalType": "bytes32",
          "name": "_docHash",
          "type": "bytes32"
        },
        {
          "internalType": "string",
          "name": "_ipfsHash",
          "type": "string"
        }
      ],
      "name": "uploadDocument",
      "outputs": [],
      "stateMutability": "nonpayable",
      "type": "function"
    },
    {
      "inputs": [
        {
          "internalType": "bytes32",
          "name": "_docHash",
          "type": "bytes32"
        }
      ],
      "name": "verifyDocument",
      "outputs": [
        {
          "internalType": "string",
          "name": "ipfsHash",
          "type": "string"
        },
        {
          "internalType": "uint256",
          "name": "timestamp",
          "type": "uint256"
        },
        {
          "internalType": "address",
          "name": "issuer",
          "type": "address"
        }
      ],
      "stateMutability": "view",
      "type": "function"
    }
  ],
  "bytecode": "0x608060405234801561001057600080fd5b50336000806101000a81548173ffffffffffffffffffffffffffffffffffffffff021916908373ffffffffffffffffffffffffffffffffffffffff1602179055506001600260003373ffffffffffffffffffffffffffffffffffffffff1673ffffffffffffffffffffffffffffffffffffffff16815260200190815260200160002060006101000a81548160ff02191690831515021790555061107b806100b86000396000f3fe608060405234801561001057600080fd5b506004361061007d5760003560e01c8063877b9a671161005b578063877b9a67146101005780638da5cb5b14610130578063b8adbfa31461014e578063fe35089f1461016a5761007d565b806320694db0146100825780632b2805db1461009e57806360a2bbd4146100d0575b600080fd5b61009c60048036038101906100979190610795565b61019c565b005b6100b860048036038101906100b391906107f8565b610285565b6040516100c7939291906108dd565b60405180910390f35b6100ea60048036038101906100e591906107f8565b610357565b6040516100f79190610936565b60405180910390f35b61011a60048036038101906101159190610795565b61037a565b6040516101279190610936565b60405180910390f35b61013861039a565b6040516101459190610951565b60405180910390f35b61016860048036038101906101639190610aa1565b6103be565b005b610184600480360381019061017f91906107f8565b6105a6565b60405161019393929190610afd565b60405180910390f35b60008054906101000a900473ffffffffffffffffffffffffffffffffffffffff1673ffffffffffffffffffffffffffffffffffffffff163373ffffffffffffffffffffffffffffffffffffffff161461022a576040517f08c379a000000000000000000000000000000000000000000000000000000000815260040161022190610bad565b60405180910390fd5b6001600260008373ffffffffffffffffffffffffffffffffffffffff1673ffffffffffffffffffffffffffffffffffffffff16815260200190815260200160002060006101000a81548160ff02191690831515021790555050565b60016020528060005260406000206000915090508060000160009054906101000a900473ffffffffffffffffffffffffffffffffffffffff16908060010180546102ce90610bfc565b80601f01602080910402602001604051908101604052809291908181526020018280546102fa90610bfc565b80156103475780601f1061031c57610100808354040283529160200191610347565b820191906000526020600020905b81548152906001019060200180831161032a57829003601f168201915b5050505050908060020154905083565b600080600160008481526020019081526020016000206002015414159050919050565b60026020528060005260406000206000915054906101000a900460ff1681565b60008054906101000a900473ffffffffffffffffffffffffffffffffffffffff1681565b600260003373ffffffffffffffffffffffffffffffffffffffff1673ffffffffffffffffffffffffffffffffffffffff16815260200190815260200160002060009054906101000a900460ff1661044a576040517f08c379a000000000000000000000000000000000000000000000000000000000815260040161044190610c9f565b60405180910390fd5b60006001600084815260200190815260200160002060020154146104a3576040517f08c379a000000000000000000000000000000000000000000000000000000000815260040161049a90610d0b565b60405180910390fd5b60405180606001604052803373ffffffffffffffffffffffffffffffffffffffff168152602001828152602001428152506001600084815260200190815260200160002060008201518160000160006101000a81548173ffffffffffffffffffffffffffffffffffffffff021916908373ffffffffffffffffffffffffffffffffffffffff16021790555060208201518160010190816105439190610ed7565b5060408201518160020155905050813373ffffffffffffffffffffffffffffffffffffffff167f191fa8a89367d81b91ddf0f25ca8775b51644ac0ec1a4f5242afdaf2dcb2c510834260405161059a929190610fa9565b60405180910390a35050565b60606000806000600160008681526020019081526020016000206040518060600160405290816000820160009054906101000a900473ffffffffffffffffffffffffffffffffffffffff1673ffffffffffffffffffffffffffffffffffffffff1673ffffffffffffffffffffffffffffffffffffffff16815260200160018201805461063190610bfc565b80601f016020809104026020016040519081016040528092919081815260200182805461065d90610bfc565b80156106aa5780601f1061067f576101008083540402835291602001916106aa565b820191906000526020600020905b81548152906001019060200180831161068d57829003601f168201915b5050505050815260200160028201548152505090506000816040015103610706576040517f08c379a00000000000000000000000000000000000000000000000000000000081526004016106fd90611025565b60405180910390fd5b806020015181604001518260000151935093509350509193909250565b6000604051905090565b600080fd5b600080fd5b600073ffffffffffffffffffffffffffffffffffffffff82169050919050565b600061076282610737565b9050919050565b61077281610757565b811461077d57600080fd5b50565b60008135905061078f81610769565b92915050565b6000602082840312156107ab576107aa61072d565b5b60006107b984828501610780565b91505092915050565b6000819050919050565b6107d5816107c2565b81146107e057600080fd5b50565b6000813590506107f2816107cc565b92915050565b60006020828403121561080e5761080d61072d565b5b600061081c848285016107e3565b91505092915050565b61082e81610757565b82525050565b600081519050919050565b600082825260208201905092915050565b60005b8381101561086e578082015181840152602081019050610853565b60008484015250505050565b6000601f19601f8301169050919050565b600061089682610834565b6108a0818561083f565b93506108b0818560208601610850565b6108b98161087a565b840191505092915050565b6000819050919050565b6108d7816108c4565b82525050565b60006060820190506108f26000830186610825565b8181036020830152610904818561088b565b905061091360408301846108ce565b949350505050565b60008115159050919050565b6109308161091b565b82525050565b600060208201905061094b6000830184610927565b92915050565b60006020820190506109666000830184610825565b92915050565b600080fd5b600080fd5b7f4e487b7100000000000000000000000000000000000000000000000000000000600052604160045260246000fd5b6109ae8261087a565b810181811067ffffffffffffffff821117156109cd576109cc610976565b5b80604052505050565b60006109e0610723565b90506109ec82826109a5565b919050565b600067ffffffffffffffff821115610a0c57610a0b610976565b5b610a158261087a565b9050602081019050919050565b82818337600083830152505050565b6000610a44610a3f846109f1565b6109d6565b905082815260208101848484011115610a6057610a5f610971565b5b610a6b848285610a22565b509392505050565b600082601f830112610a8857610a8761096c565b5b8135610a98848260208601610a31565b91505092915050565b60008060408385031215610ab857610ab761072d565b5b6000610ac6858286016107e3565b925050602083013567ffffffffffffffff811115610ae757610ae6610732565b5b610af385828601610a73565b9150509250929050565b60006060820190508181036000830152610b17818661088b565b9050610b2660208301856108ce565b610b336040830184610825565b949350505050565b7f4f6e6c7920636f6e7472616374206f776e65722063616e20706572666f726d2060008201527f7468697320616374696f6e2e0000000000000000000000000000000000000000602082015250565b6000610b97602c8361083f565b9150610ba282610b3b565b604082019050919050565b60006020820190508181036000830152610bc681610b8a565b9050919050565b7f4e487b7100000000000000000000000000000000000000000000000000000000600052602260045260246000fd5b60006002820490506001821680610c1457607f821691505b602082108103610c2757610c26610bcd565b5b50919050565b7f4f6e6c7920697373756572732063616e2075706c6f616420646f63756d656e7460008201527f732e000000000000000000000000000000000000000000000000000000000000602082015250565b6000610c8960228361083f565b9150610c9482610c2d565b604082019050919050565b60006020820190508181036000830152610cb881610c7c565b9050919050565b7f446f63756d656e7420616c7265616479206578697374732e0000000000000000600082015250565b6000610cf560188361083f565b9150610d0082610cbf565b602082019050919050565b60006020820190508181036000830152610d2481610ce8565b9050919050565b60008190508160005260206000209050919050565b60006020601f8301049050919050565b600082821b905092915050565b600060088302610d8d7fffffffffffffffffffffffffffffffffffffffffffffffffffffffffffffffff82610d50565b610d978683610d50565b95508019841693508086168417925050509392505050565b6000819050919050565b6000610dd4610dcf610dca846108c4565b610daf565b6108c4565b9050919050565b6000819050919050565b610dee83610db9565b610e02610dfa82610ddb565b848454610d5d565b825550505050565b600090565b610e17610e0a565b610e22818484610de5565b505050565b5b81811015610e4657610e3b600082610e0f565b600181019050610e28565b5050565b601f821115610e8b57610e5c81610d2b565b610e6584610d40565b81016020851015610e74578190505b610e88610e8085610d40565b830182610e27565b50505b505050565b600082821c905092915050565b6000610eae60001984600802610e90565b1980831691505092915050565b6000610ec78383610e9d565b9150826002028217905092915050565b610ee082610834565b67ffffffffffffffff811115610ef957610ef8610976565b5b610f038254610bfc565b610f0e828285610e4a565b600060209050601f831160018114610f415760008415610f2f578287015190505b610f398582610ebb565b865550610fa1565b601f198416610f4f86610d2b565b60005b82811015610f7757848901518255600182019150602085019450602081019050610f52565b86831015610f945784890151610f90601f891682610e9d565b8355505b6001600288020188555050505b505050505050565b60006040820190508181036000830152610fc3818561088b565b9050610fd260208301846108ce565b9392505050565b7f446f63756d656e74206e6f7420666f756e642e00000000000000000000000000600082015250565b600061100f60138361083f565b915061101a82610fd9565b602082019050919050565b6000602082019050818103600083015261103e81611002565b905091905056fea2646970667358221220b70627d109dbe5223ad8c32bb28a2f3be2de5f8bb530948292929a26d8ae297464736f6c63430008140033",
  "linkReferences": {},
  "deployedLinkReferences": {}
}